:1000000000800020013C00002D3C00002D3C000041
:100010002D3C00002D3C00002D3C00002D3C00003C
:100020002D3C00002D3C00002D3C00002D3C00002C
:100030002D3C00002D3C00002D3C00002D3C00001C
:10004000ED160000352B0000393B00002D3C000070
:100050002D3C00002D3C00002D3C00002D3C0000FC
:100060002D3C00002D3C00002D3C00005D2B0000CD
:100070002D3C00002D3C00002D3C00002D3C0000DC
:100080002D3C00002D3C00002D3C00002D3C0000CC
:100090002D3C00002D3C00002D3C00002D3C0000BC
:1000A0002D3C00002D3C00002D3C00002D3C0000AC
:1000B0002D3C00002D3C0000E53100002D3C0000EF
:1000C0002D3C00002D3C00002D3C00002D3C00008C
:1000D0002D3C00002D3C00002D3C00002D3C00007C
:1000E00010B5054C237833B9044B13B10448AFF372
:1000F00000800123237010BD0001002000000000DB
:10010000C470000008B5034B1BB103490348AFF3AB
:10011000008008BD0000000004010020C470000041
:10012000154B002B08BF134B9D46A3F5803A0021C9
:100130008B460F461348144A121A05F0A5FD0F4BC3
:10014000002B00D098470E4B002B00D09847002082
:10015000002104000D000D48002802D00C48AFF328
:10016000008005F06DFD2000290000F0B5F805F0D5
:1001700053FD00BF000008000080002000000000C8
:100180000000000000010020040700200000000023
:100190000000000080B584B002AF396011461A46F5
:1001A0000346FB710B46BB7113467B71BA79F87934
:1001B0003B7C01937B79009313463A68396801F0E0
:1001C00057FD00BF0837BD4680BD000080B400AFBA
:1001D000034B01221A6400BFBD465DF8047B7047E3
:1001E00000000C4080B582B002AF0121154800F03C
:1001F0000BFD02F04FFC012302220921012001F036
:10020000A1FD012300930123002209210120FFF712
:10021000C1FF0D49092002F04DFC012302220A21F1
:10022000012001F08FFD01230093012300220A2108
:100230000120FFF7AFFF05490A2002F03BFC00BF99
:10024000BD4680BD00D204005102000085020000BE
:1002500080B483B000AF0346FB71094B1B889BB28F
:10026000002B06D1064B1B889BB201339AB2044B7C
:100270001A8000BF0C37BD465DF8047B704700BF95
:100280001C01002080B483B000AF0346FB710B4B10
:100290001B889BB2002B03D0084B00221A8006E07B
:1002A000064B1B889BB2013B9AB2044B1A8000BFDD
:1002B0000C37BD465DF8047B704700BF1C01002071
:1002C00080B500AF034B01221A70002003F04AFEF4
:1002D00000BF80BD6401002080B590B002AF07F17F
:1002E000100324220021184605F0CEFC07F110036C
:1002F0007B63FFF76BFF0421112000F087FEFFF7FF
:1003000071FF02F023FD03F0E1FD002003F00AFE7F
:10031000012003F007FE444802F0C4FC0346002B12
:1003200000D0FEE7404B1868002300933F4B6F223C
:10033000012102F05BFD0346002B00D0FEE73C48A4
:1003400005F0AAFC3B4B3B613B4B7B623B4BFB62AA
:100350003B4B3B63786B05F047F83B46184604F08F
:1003600040FC7B881946374805F096FC364805F076
:1003700093FC364805F090FC05F094F8786B05F096
:10038000BBF8786B05F060F8314B1B78DBB2002BC3
:10039000F7D02F4B00221A702E4B1B889BB2002BDC
:1003A000EFD02D4B1B78DBB283F00103DBB2002BC7
:1003B00036D0294B01221A70284B1B889BB21B0A8E
:1003C0009BB2DAB2264B5A70244B1B889BB2DAB22E
:1003D000234B9A702249786B05F0E6F91F4B1B8876
:1003E0009BB219461F4805F057FC1C4B1B889BB25B
:1003F00001339AB2194B1A80164B1B889BB24FF6E9
:10040000FF729342BDD0134B1B889BB2002BB8D018
:10041000104B1B889BB2013B9AB20E4B1A80B0E77F
:10042000114805F039FCACE768010020C10200006A
:10043000A06B00006D040000950400002401002062
:10044000F9040000C06B0000D46B0000F86B0000E2
:10045000640100201C0100201E010020200100205A
:1004600000000020246C0000386C000080B582B0D1
:1004700000AF786039603B68002B05D1044B002247
:100480001A70786805F038F800BF0837BD4680BD9F
:100490001E01002080B584B000AF786039603B68F1
:1004A000002B1FD1114B5B78412B0BD10F4B9B784D
:1004B000432B07D10D4BDB784B2B03D10C4805F0B8
:1004C000EBFB0FE0094B5B789BB21B02FB81074BF8
:1004D0009B789AB2FB891344FB81FB891946054836
:1004E00005F0DAFB00BF1037BD4680BD24010020B7
:1004F000546C0000686C000080B582B000AF78607A
:1005000039603B68002B05D1044805F0C5FB7868CD
:1005100004F0F2FF00BF0837BD4680BD7C6C0000D0
:1005200080B487B000AFF860B9607A60FB6803F10F
:100530000473DA00BB6813449B007B617B697A68B3
:100540001A6000BF1C37BD465DF8047B704780B45D
:1005500085B000AF786039607B6803F10473DA001E
:100560003B6813449B00FB60FB681B68184614370C
:10057000BD465DF8047B704780B485B000AF7860FD
:100580007B68002B03D07B68B3F5004F00BF7B680E
:10059000B3FA83F3DBB2C3F11F03FB60FB681846B9
:1005A0001437BD465DF8047B7047000080B400AF8F
:1005B000044BDB6C1B0EDBB21846BD465DF8047BBA
:1005C000704700BFB081E00F80B584B000AF7860A5
:1005D0000123FB607B68114A934204D80023FB602F
:1005E0000023BB6008E07B680D4A934202D80123D8
:1005F000BB6001E00223BB60FA681E210948FFF7D7
:100600008FFF084B5B6823F48072BB681B020549AF
:1006100013434B6000BF1037BD4680BD00366E01EE
:10062000006CDC0200800C4080B582B000AF1E215F
:100630000448FFF78CFF78607B6818460837BD4692
:1006400080BD00BF00800C4080B582B000AF214B60
:100650005B6903F4E063B3F5007F1CD0B3F5007F62
:1006600005D8002B25D0B3F5807F1FD02AE0B3F545
:10067000C06F24D0B3F5E06F1ED0B3F5407F21D119
:10068000FFF794FF0346122B02D9134B7B601CE04B
:10069000124B7B6019E0FFF789FF0346122B02D94A
:1006A0000F4B7B6011E00F4B7B600EE00E4B7B60CD
:1006B0000BE00E4B7B6008E00D4B7B6005E00D4BC3
:1006C0007B6002E000237B6000BF7B681846083730
:1006D000BD4680BD00800C40804F120040420F009C
:1006E00040B56400C0CF6A00C0D8A700809FD50085
:1006F000406F4001003FAB0180B582B000AF0D48B4
:1007000000F0D6FB0346FB70FB78072B05D0092BC6
:1007100007D103F0BFFA786006E0FFF795FF786035
:1007200002E000237B6000BF7B6818460837BD46A7
:1007300080BD00BF06000E0080B485B000AF7860B9
:100740003960204B5B6803F00703FB60FB68012BFB
:1007500001D9042B02D10023FB7202E00123FB72BA
:1007600000BF7B68184A934207D9FB7A002B01D05F
:10077000052300E00423FB6016E07B68124A9342E5
:100780000BD87B68114A934207D9FB7A002B01D022
:10079000032300E00123FB6006E0FB7A002B01D07D
:1007A000022300E00023FB60064B5B6823F0070296
:1007B0000449FB6813434B6000BF1437BD465DF826
:1007C000047B704700000C400048E8010024F4005E
:1007D00080B582B000AF0E4BDB6B002B14BF012342
:1007E0000023FB710A4B41F67132DA6303F048FAD9
:1007F000034600211846FFF79FFFFB79002B02D02C
:10080000034B0022DA6300BF0837BD4680BD00BF3E
:1008100000000C4080B584B000AF786039600C4BAC
:10082000DB6B002B14BF01230023FB73084B41F645
:100830007132DA6339687868FFF77EFFFB7B002B43
:1008400002D0034B0022DA6300BF1037BD4680BDE3
:1008500000000C4090B585B000AF78600023BB600D
:100860007B68344A934203D0334A934200D000E07D
:1008700000BF786800F01CFB0346FB607B682D4AD4
:10088000934203D02C4A934206D00CE02B4B9B6A38
:1008900003F00303FB6006E0284B9B6A9B0803F010
:1008A0000303FB6000BFFB68032B39D801A252F899
:1008B00023F000BFEB080000C5080000CD080000D1
:1008C000D508000003F088FAB8602DE003F096FA2E
:1008D000B86029E003F0BAF90446FFF7A5FE034625
:1008E000013324FA03F3BB601EE00023BB607B6886
:1008F000104A934203D07B680F4A934213D10F4BA7
:100900009A6A7B680B498B4201D1102300E01423C3
:1009100022FA03F3002B06D003F067FAB86002E076
:100920000023BB6000E000BFBB6818461437BD461B
:1009300090BD00BF02001E000300200000800C409C
:1009400080B483B000AF7860094B5B6D03F00103A6
:10095000002B07D100BF064B1A6D7B681340002B9C
:10096000F9D100E000BF0C37BD465DF8047B70474D
:1009700000800C4080B582B000AF104800F098FABB
:100980000346FB70FB78032B07D0092B09D0022B01
:100990000BD103F033FA78600AE003F01DFA7860B7
:1009A00006E003F077F9786002E000237B6000BF87
:1009B0007B6818460837BD4680BD00BF0723260068
:1009C00080B400AF00BFBD465DF8047B704780B4C3
:1009D00000AF00BFBD465DF8047B704790B585B0A1
:1009E00000AF786039607B681B0903F00F03FB6080
:1009F000FB68013B082B00F2F48001A252F823F0BF
:100A0000250A0000E30B0000E30B0000590A000078
:100A1000E30B0000E30B0000810A0000CD0A000098
:100A20008F0B00003B68002B02D03B68082B00BFF7
:100A3000FFF7CEFE6D4B1B6823F4E0323B68013BB1
:100A40009B036A4913430B6003F000F9B86000216F
:100A5000B868FFF7DFFEC5E03B68002B03D03B68BA
:100A6000B3F5007F00BF3868FFF786FD38605F4B45
:100A70009B6823F00F025D493B6813438B60B1E034
:100A80003B68002B03D03B68B3F5007F00BFFFF746
:100A90009FFE03F0FFF802463B68B2FBF3F31846F3
:100AA000FFF792FD3868FFF767FD38604F4B5B68D2
:100AB00023F00F024D493B6813434B6003F0C6F827
:100AC000B8600021B868FFF7A5FE8BE07B68484A54
:100AD00093421ED0464A934203D8464A934207D0D7
:100AE00054E0454A934225D0444A93423ED04DE0DB
:100AF0000420FFF725FF3868FFF73EFD38603B4BC9
:100B00009B6E23F0F0023B681B01384913438B6650
:100B10003CE00420FFF714FF3868FFF72DFD386034
:100B2000324B9B6E23F470623B681B022F491343C8
:100B30008B662BE03B680F2B02D93B68802B00BFF4
:100B40000420FFF7FDFE3868FFF716FD3860274BDD
:100B50009B6E23F440541020FFF70EFD02463B68C5
:100B60009B1A1B03214A234393660FE00420FFF7DF
:100B7000E7FE3868FFF700FD38601C4B9B6E23F0E2
:100B800003021A493B6813438B6600BF2AE07B6867
:100B90001B4A934203D01B4A934210D020E04020CE
:100BA000FFF7CEFE3868FFF7E7FC38600F4B1B6F8E
:100BB00023F003020D493B6813430B6710E040200C
:100BC000FFF7BEFE3868FFF7D7FC3860074B1B6F96
:100BD00023F030023B681B01044913430B6700BF3D
:100BE00000E000BF00BF1437BD4690BD00800C4040
:100BF000802616008016120080002A0080062E0033
:100C000090071A0090171C0080B586B000AF78607E
:100C10000B46FB7000233B617B681B0A03F00F034C
:100C2000013B092B45D801A252F823F0690C0000C2
:100C30006F0C0000550C0000B30C0000B30C00005A
:100C4000750C00007F0C0000B30C0000B30C00001A
:100C5000890C0000194B7B61194800F03DF80346F0
:100C60001846FFF7B1FC12E0164B7B610FE0164B04
:100C70007B610CE0154B7B6101233B6107E0144B6A
:100C80007B6110233B6102E0124B7B6100BF7B68FC
:100C90001B0B03F01F03FB603B69002B02D038697C
:100CA000FFF74EFEFB781A46F9687869FFF738FCC3
:100CB00000E000BF1837BD4680BD00BF40800C403B
:100CC0000043020008800C4044800C4058800C40D7
:100CD00060800C4078800C4090B585B000AF7860A3
:100CE0007B6803F47813B3F5D01F00F0AB80B3F545
:100CF000D01F1AD8B3F5602F00F0BF80B3F5602F76
:100D000008D8B3F5003F3CD0B3F5802F2DD0002B91
:100D100027D0BEE0B3F5901F3CD0B3F5B01F47D04D
:100D2000B3F5801F00F0AD80B3E0B3F5181F00F0FD
:100D3000AC80B3F5181F0AD8B3F5F01F25D0B3F572
:100D4000001F7AD0B3F5E01F00F08980A1E0B3F571
:100D5000301F4ED0B3F5381F62D0B3F5281F35D001
:100D600097E002F097FFF86096E002F093FFF860DA
:100D70004C4B9B6803F00F03FA6822FA03F3FB6005
:100D80008AE002F063FFF86086E04748FFF762FD03
:100D9000F86081E04448FFF75DFDF860414B9B6ED1
:100DA0001B0903F00F03FA6822FA03F3FB6073E0F8
:100DB0003D48FFF74FFDF8603A4B9B6E1B0A03F06E
:100DC0000F03FA6822FA03F3FB6065E03648FFF789
:100DD00041FDF860334B9B6E1B0B03F003041020A6
:100DE000FFF7CAFB03462344FA6822FA03F3FB60C9
:100DF00052E02D48FFF72EFDF8602A4B9B6E1B0B2F
:100E000003F00303FA6822FA03F3FB60254BDB6F60
:100E100003F007030133FA68B2FBF3F3FB603BE036
:100E20002148FFF717FDF8601E4B9B6E03F003038C
:100E3000FA6822FA03F3FB602EE01C48FFF70AFD74
:100E4000F86029E01948FFF705FDF860154B1B6FA6
:100E500003F00303FA6822FA03F3FB601CE0134873
:100E6000FFF7F8FCF8600F4B1B6F1B0903F003033F
:100E7000FA6822FA03F3FB600EE0FFF73DFCF8602E
:100E80000AE0FFF7E1FBF86006E0FFF773FDF860AA
:100E900002E00023FB6000BFFB6818461437BD4624
:100EA00090BD00BF00800C4002001E000300200027
:100EB00080B485B000AF78600123FB737B6803F0DA
:100EC0000F03BB60BB68013B062B00F2938001A2BD
:100ED00052F823F0F10E0000270F0000630F00000E
:100EE000F50F0000F50F00009F0F0000C10F00007C
:100EF000454BDB6A03F47053B3F5805F09D0B3F55B
:100F0000005F03D0B3F5006F06D008E00223FB7347
:100F100008E00323FB7305E00423FB7302E00523D1
:100F2000FB7300BF69E0384B9B6A03F00303022B9D
:100F300006D0032B07D0012B08D10323FB730FE04E
:100F40000223FB730CE00623FB7309E02E4B9B6A24
:100F500003F48033002B02D00A23FB7300E000BFB0
:100F60004BE0294B9B6A03F00C03082B06D00C2B9B
:100F700007D0042B08D10323FB730FE00223FB737C
:100F80000CE00623FB7309E01F4B9B6A03F48013FC
:100F9000002B02D00A23FB7300E000BF2DE01A4BA8
:100FA0001B6803F08053002B03D0B3F1805F03D0A4
:100FB00023E00723FB7302E00923FB7300BF1CE05F
:100FC000114BDB6A03F46033B3F5803F08D0B3F50F
:100FD000003F08D0B3F5004F08D10923FB7308E0A8
:100FE0000223FB7305E00323FB7302E00123FB7381
:100FF00000BF02E00023FB7300BFFB7B18461437E1
:10100000BD465DF8047B704700800C4080B588B019
:1010100000AF78600B46FB700323FB610323FB7674
:1010200000233B617B6803F00F03FB60FB68013B1F
:10103000062B00F2248101A252F823F0591000007F
:1010400027110000271100007F1200007F1200000E
:10105000ED11000017120000FB78023B082B00F294
:10106000108101A252F823F08D10000097100000AB
:10107000A1100000DB1000008312000083120000AA
:101080008312000083120000831200000423FB611E
:101090000023FB7629E00323FB610123FB7624E098
:1010A0000223FB610223FB767948FFF78DFA02F0F9
:1010B00071FE0246774B9A4206D9774B1B68764AF7
:1010C00043F06003136010E0734B1B6823F0600370
:1010D000714A43F02003136007E00123FB610323FF
:1010E000FB766B48FFF770FA00BFFB7E01220121FF
:1010F000184600F0D7F8FFF76BFBFFF761FC664A74
:10110000FB6953626548FFF7E7FD03461846FFF7A2
:101110005BFA02F09BFDB8600021B868FFF77AFB2C
:10112000FFF755FCB0E0FB78013B092B00F2AB80E8
:1011300001A252F823F000BF611100006711000006
:10114000771100008712000087120000871100004D
:10115000871200008712000087120000A311000010
:1011600000237B6122E001220121002000F09AF897
:1011700002237B611AE001220121012000F092F894
:1011800001237B6112E002F061FDB860B868FFF7EF
:101190001BFA012204214248FFF7C2F903237B61B5
:1011A00004E000237B6101233B6100BFFB68022B4D
:1011B0000DD1394B9B6A23F4803323F003037A6902
:1011C0001A433B691B04344913438B625CE0324B86
:1011D0009B6A23F4801323F00C037A6992001A436C
:1011E0003B691B052C4913438B624DE0FB78072BB1
:1011F00002D0092B07D047E0274B1B68264A23F073
:101200008053136006E0244B1B68234A43F080534D
:10121000136000BF38E0FB78032B14D0092B22D0D9
:10122000022B00D030E001220121002000F03AF82A
:10123000194B40225A6200BF174BDB6A03F480331C
:10124000002BF9D01AE001220121012000F02AF838
:10125000114B60225A6200BF0F4BDB6A03F400336C
:10126000002BF9D00AE00C4B20225A6200BF0A4B37
:10127000DB6A03F40043002BF9D000BF04E000BF99
:1012800002E000BF00E000BF2037BD4680BD00BFC8
:1012900001366E010048E80100800C400043020066
:1012A00040800C4080B586B000AF0346FB710B4612
:1012B000BB7113467B71FB79042B48D801A252F80D
:1012C00023F000BF1113000003130000E712000019
:1012D000D9120000F512000001233B610223FB60DC
:1012E00001237B611DE004233B610823FB60032392
:1012F0007B6116E010233B612023FB6005237B61AB
:101300000FE040233B618023FB6007237B6108E003
:101310004FF480733B614FF40073FB6009237B61E2
:1013200000BFBB79002B0ED00B4A3B6913627B795F
:10133000002B0DD000BF79690848FFF708F9034674
:10134000002BF8D004E0044AFB68136200E000BF01
:101350001837BD4680BD00BF00800C402C800C407B
:1013600080B483B000AF0346FB7197F90730002BC0
:1013700009DB0D4A97F90730134493F80033DBB2C9
:101380005B09DBB209E0094AFB7903F00F03043B78
:1013900013441B7EDBB25B09DBB218460C37BD463B
:1013A0005DF8047B704700BF00E100E000ED00E065
:1013B00080B483B000AFEFF310833B603B687B6089
:1013C00072B67B6818460C37BD465DF8047B7047E3
:1013D00080B483B000AF78607B68002B00D162B628
:1013E00000BF0C37BD465DF8047B704780B588B000
:1013F00000AF0346FB7197F9073013F10C0F03DBC5
:1014000097F90730272B00BFEFF310833B613B694F
:1014100003F00103002B01D0012335E097F90730D9
:10142000184600F037F80346002B01D001232BE0CB
:1014300097F907301846FFF793FFF861EFF3118330
:10144000FB60FB68BB61BB69002B06D0BB695B0915
:10145000FA699A4201D3012316E00D4B5B68C3F38E
:1014600008037B617B69002B0DD07B69DBB2103BED
:10147000DBB25BB21846FFF773FF0246FB6993428B
:1014800001D3012300E0002318462037BD4680BD6C
:1014900000ED00E080B485B000AF0346FB7197F922
:1014A0000730002B03DB97F90730272B00BF0D4BCC
:1014B000FB6097F907305A09FB6853F82220FB7943
:1014C00003F01F0322FA03F303F00103002B0CBF08
:1014D00001230023DBB218461437BD465DF8047BB8
:1014E000704700BF00E100E080B483B000AF034666
:1014F000FB7197F90730002B0BDBFB7903F01F0220
:10150000074997F907305B09012000FA02F241F818
:10151000232000BF0C37BD465DF8047B704700BF39
:1015200000E100E080B483B000AF0346FB7197F99F
:101530000730002B10DBFB7903F01F02094997F9F4
:1015400007305B09012000FA02F2203341F8232022
:10155000BFF34F8FBFF36F8F00BF0C37BD465DF8F1
:10156000047B704700E100E080B483B000AF034625
:10157000FB7197F90730002B0CDBFB7903F01F029E
:10158000074997F907305B09012000FA02F260333E
:1015900041F8232000BF0C37BD465DF8047B70473F
:1015A00000E100E080B487B000AFF860B9607A6015
:1015B000FB6803F10473DA00BB6813449B007B6192
:1015C0007B697A681A6000BF1C37BD465DF8047BF2
:1015D0007047000080B489B000AF786008461146BB
:1015E0001A460346FB700B46BB7013467B707B6844
:1015F0001A013D4B9B681344BB61BB78002B02D0A2
:10160000BB69FB6105E07B681A01374BDB6813445B
:10161000FB61BB69DB687B617B69002B02D0BA7818
:101620007B691A72FB6A002B14D0FB699B689B0EC6
:1016300003F003033B613B69032B03D1FB69FA6AA7
:101640001A6007E03A6B3B699A40FB6A13441A46FA
:10165000FB691A60BB6A002B14D0FB699B689B0F67
:1016600003F003033B613B69032B03D1FB69BA6AB7
:101670005A6007E03A6B3B699A40BB6A13441A46CA
:10168000FB695A6001227B6802FA03F3FB607B78F6
:10169000002B03D0144AFB68936102E0124AFB68F6
:1016A000D361BB78002B03D00F4AFB68536302E081
:1016B0000D4AFB681363FB699B6823F47F5323F097
:1016C0003703BB603B6B1B01BA681343BB60FB78FD
:1016D000BA681343BB60FB69BA689A6000BF2437DD
:1016E000BD465DF8047B704700200C4080B58AB091
:1016F00000AF344B03F580531B68BB61314B03F5DE
:1017000080530C331B68BA691340BB612D4B9B6B34
:101710007B61BA697B6913403B620023FB6149E04E
:1017200000237B623BE03B6A03F00103002B30D0D7
:10173000244B9B683B6101227B6A02FA03F3FB6046
:10174000204B03F580530833FA681A607B6A1B014B
:101750003A691344DB68BB60BB68002B19D0BB68D7
:101760001B7A7B60BB681B7A83F00103DAB2BB682B
:101770001A72BB681B68002B0BD0BB681B68786AA9
:101780007A68002A14BF01220022D1B2BA685268D6
:1017900098473B6A5B083B627B6A01337B623B6A2A
:1017A000002BC0D17B69DB43BA6913403B62FB6904
:1017B0000133FB61FB69012BB2DD00BF2837BD4659
:1017C00080BD00BF00200C4080B588B004AFF86039
:1017D0007B600B46FB721346BB72B97AFA7AFB69DF
:1017E0000293BB6901937B6800930B460121F86863
:1017F000FFF7F0FE0122FB689A40034B9A6200BF9C
:101800001037BD4680BD00BF00200C4080B588B0B9
:1018100004AFF8607A603B600B46FB72FA7A7B6A31
:1018200002933B6A0193FB69009313460022032154
:10183000F868FFF7CFFEFA7ABB6902933B68019321
:101840007B680093134601220321F868FFF7C2FE6C
:101850000122FB689A40034B9A6200BF1037BD46D5
:1018600080BD00BF00200C4080B584B000AF786020
:1018700039601E4B9B68FB603B6899687B681B0165
:10188000FA6813440A46DA603B681B78002B05D0DF
:1018900001227B689A40154B9A6304E001227B6821
:1018A0009A40124BDA6311493B685A687B6803F52A
:1018B000886341F823203B685B78002B0DD0012220
:1018C0007B689A40094B03F5805308331A60012264
:1018D00079680748FFF766FE04E00022796804484B
:1018E000FFF760FE00BF1037BD4680BD00200C40F2
:1018F0000C300C4080B487B000AFF8600B467A60C3
:10190000FB72FB7A002B03D0154B9B687B6102E0D6
:10191000134BDB687B61FB681B017A6913447B61B5
:101920007B681B789A077B689B781B071A437B6848
:101930005B789B061A437B689B781B0613431A4609
:101940007B681B799B0413437A68D27892031A430D
:101950007B699A6000BF1C37BD465DF8047B704709
:1019600000200C4080B582B000AF786001211048A3
:10197000FFF74AF900F0A0F80020FFF7F5FD00207E
:10198000FFF7B2FD0B4B03F580530C334FF00042D1
:101990001A607B685A68074B9A607B681B785B010A
:1019A000044A43F00103536000BF0837BD4680BDC1
:1019B0000003020000200C4080B48BB000AFF86040
:1019C0007B600B46FB721346BB7297F83830002BD6
:1019D00003D0012387F8273002E0032387F827305C
:1019E000FB7A002B06D0FB681A01324B9B6813442C
:1019F0003B6205E0FB681A012E4BDB6813443B6237
:101A00003B6B002B14D03B6A9B689B0E03F00303D7
:101A1000FB61FB69032B03D13B6A3A6B1A6007E059
:101A20007A6BFB699A403B6B13441A463B6A1A6017
:101A30007B68002B14D03B6A9B689B0F03F0030369
:101A4000FB61FB69032B03D13B6A7A685A6007E0AC
:101A50007A6BFB699A407B6813441A463B6A5A606A
:101A60000122FB6802FA03F3BB61BB7A002B03D0AF
:101A7000104ABB69936102E00E4ABB69D3613B6ABD
:101A80009B6823F47F5323F037037B617B6B1B013F
:101A90007A6913437B6197F827307A6913437B6136
:101AA0003B6A7A699A6000BF2C37BD465DF8047BBB
:101AB000704700BF00200C4080B582B000AF00200E
:101AC000FFF730FD1C4B00225A601B4B40F6FF72A3
:101AD000DA61194B40F6FF725A62174B40F6FF72FB
:101AE000DA62154B40F6FF725A63134B40F6FF72F1
:101AF000DA63114B0122DA640F4B03F580530C3388
:101B000000221A600C4B03F5805308330B4A1A600D
:101B100000237B6009E0084A7B6803F588630021A5
:101B200042F823107B6801337B607B680B2BF2DD6E
:101B300000BF0837BD4680BD00200C40FF0F00806D
:101B400080B487B000AFF860B9607A60FB6803F1D9
:101B50000473DA00BB6813449B007B617B697A687D
:101B60001A6000BF1C37BD465DF8047B704780B427
:101B700085B000AFF860B9607A60FB681A68BB682E
:101B8000DB431A407B681A43FB681A6000BF1437B6
:101B9000BD465DF8047B704780B483B000AF7860C9
:101BA000044A7B68C2F81C3100BF0C37BD465DF8A3
:101BB000047B70470060004080B483B000AF0346F0
:101BC0003960FB71FB79002B0DD0FB79012B0AD01A
:101BD000FB79022B07D0FB79032B04D0FB79042B74
:101BE00001D0FB79052B01223B6802FA03F3084977
:101BF000FA7918461346DB0013449B000B44143358
:101C0000186000BF0C37BD465DF8047B704700BF0D
:101C10000060004080B483B000AF03463960FB71C0
:101C2000FB79002B0DD0FB79012B0AD0FB79022B1D
:101C300007D0FB79032B04D0FB79042B01D0FB796F
:101C4000052B01223B6802FA03F30849FA7918468A
:101C50001346DB0013449B000B441033186000BF95
:101C60000C37BD465DF8047B704700BF0060004044
:101C700080B586B000AFB9607A601A460346FB7340
:101C80001346BB7300237B61FB7B002B0DD0FB7BDA
:101C9000012B0AD0FB7B022B07D0FB7B032B04D04C
:101CA000FB7B042B01D0FB7B052B7B68072B0ED81D
:101CB0007B689B00072202FA03F1FA7B7B689B009A
:101CC00002FA03F31A461A48FFF751FF10E07B6847
:101CD000083B7B617B699B00072202FA03F1FA7BD8
:101CE0007B699B0002FA03F31A461248FFF73FFF95
:101CF000BB7B1A4679681048FFF722FF97F820301F
:101D00001A4679680D48FFF71BFF01227B6802FA2B
:101D100003F31846FFF740FF97F824301A46796816
:101D20000748FFF70DFF00BF1837BD4680BD00BF55
:101D30000061004004610040086100400C61004007
:101D40001061004080B584B000AFB9607B6003468D
:101D5000FB731346BB73FB7B002B0DD0FB7B012B6E
:101D60000AD0FB7B022B07D0FB7B032B04D0FB7B31
:101D7000042B01D0FB7B052BBB7B002B0DD07B689C
:101D8000002B05D0FB7BB9681846FFF743FF04E042
:101D9000FB7BB9681846FFF70FFFBB68072B20D8FD
:101DA0002D49FA7B1346DB0013449B000B4404339C
:101DB0001A68BB689B000F2101FA03F3DB43134051
:101DC000B97BBA68920001FA02F211462248FA7B06
:101DD00019431346DB0013449B000344043319608A
:101DE00025E01D49FA7B1346DB0013449B000B449E
:101DF00008331A68BB6803F18043083B9B000F213E
:101E000001FA03F3DB4302EA0301BA7BBB6803F187
:101E10008043083B9B0002FA03F30F48FA7B194307
:101E20001346DB0013449B00034408331960BB7B5B
:101E3000002B0DD17B68002B05D0FB7BB9681846C1
:101E4000FFF7E8FE04E0FB7BB9681846FFF7B4FE35
:101E500000BF1037BD4680BD0060004080B584B033
:101E600000AFF860B9607A60BA687B6813431A46BD
:101E70000021F86800F004F800BF1037BD4680BDAF
:101E800080B487B000AFF8600B467A60FB727A6866
:101E90000D4B13407B61FB7A002B08D10B497B690A
:101EA00043F08052FB68043341F8232005E00749E2
:101EB000FB6804337A6941F8232000BF1C37BD4614
:101EC0005DF8047B704700BF07003F0000C00C4076
:101ED00080B487B000AFF860B9607A60FB6803F146
:101EE0000473DA00BB6813449B007B617B697A68EA
:101EF0001A6000BF1C37BD465DF8047B70470000C8
:101F000080B485B000AF78607B68002B02D0012BD5
:101F100004D007E0084B9B68FB6006E0064BDB68DB
:101F2000FB6002E00023FB6000BFFB68184614372B
:101F3000BD465DF8047B70470000084080B485B062
:101F400000AF786039607B68002B02D0012B03D092
:101F500008E0074BFB6002E0064BFB6000BFFB683C
:101F60003A681A601437BD465DF8047B704700BFBD
:101F7000080008400C00084080B582B000AF03465E
:101F8000FB71FB791A4600210348FFF7A1FF00BF50
:101F90000837BD4680BD00BF0000084080B485B052
:101FA00000AF78607B681B78002B02D00123FB60B8
:101FB00001E00023FB607B685B78002B03D0FB68AB
:101FC00043F00203FB607B689B78002B03D0FB6827
:101FD00043F00403FB60044AFB68136000BF14373E
:101FE000BD465DF8047B70470000084080B500AF37
:101FF0000020FFF7C1FF0120FFF7BEFF00BF80BD3B
:1020000080B483B000AF78607B680D4A93420BD0F8
:102010007B680C4A934207D07B680B4A934203D0FB
:102020007B680A4A934201D1012300E0002303F0B8
:102030000103DBB218460C37BD465DF8047B7047E0
:10204000000001400004014000080140000C014074
:1020500080B584B000AF786039607868FFF7D0FF52
:102060000023FB603B681B7883F00103DBB2002B8D
:1020700002D07B6802225A607B6800225A623B6869
:102080009B781A063B68DB781B041A433B689B79F4
:102090009B021A433B68DB791B0213433A68127AAE
:1020A00013433A685278002A01D0402200E000220F
:1020B00013433A68527A002A01D0802200E00022BD
:1020C00013433A68927A002A01D0202200E00022CD
:1020D00013433A68D27A002A01D0102200E000228D
:1020E00013433A68127B002A01D0082200E0002244
:1020F0001343FB603B681B79002B02D04FF4005266
:1021000000E000223B685B79002B02D04FF0805347
:1021100000E000231343FA681343FB607B68FA680E
:102120001A603B681B78002B02D07B6801225A6042
:1021300000BF1037BD4680BD80B584B000AFF860E9
:10214000B9607A60F868FFF75BFF7B681B789A06D6
:102150007B685B781B061A437B689B781B041A43D9
:102160007B68DB781B031A437B681B799B021A434D
:102170007B685B791B0213437A68927913437A6810
:10218000D279002A02D04FF4001200E0002213435B
:102190007A68127A002A02D04FF4801200E00022FE
:1021A00013437A68527A002A01D0102200E00022FC
:1021B00013437A68927A002A01D0042200E00022B8
:1021C0001A43F968BB6803331B010B441A6000BF54
:1021D0001037BD4680BD80B483B000AF78600B4639
:1021E000FB70FB7843F01003DBB21A467B689A65FC
:1021F00000BF0C37BD465DF8047B704780B586B0E4
:1022000000AFF860B9607A60BB68002B03D10A4860
:10221000FEF762FDB860BB685A1E7B685B00B2FBCC
:10222000F3F37B617B691B027B61FB687A695A610E
:1022300000BF1837BD4680BD4081040080B582B024
:1022400000AF786039607B68304A934206D07B6883
:102250002F4A934202D07B682E4A934200BF78688F
:1022600000F05AF87B681A683B681B8A43F0010348
:102270009BB219463B689B7B002B02D04FF48063D6
:1022800000E000230B431A437B681A607B681B68DD
:102290003A68127D002A02D04FF0005200E000227E
:1022A0001A437B681A603B689B7C002B05D03B6817
:1022B000DB7C19467868FFF78EFF3B681B7B43F495
:1022C00080527B685A603B6859683B689B681A4635
:1022D0007868FFF793FF3B685B7B002B02D07B683D
:1022E0001022DA603B685B7D002B05D07B681B68A1
:1022F00043F480327B681A603B681B781A467B681F
:10230000DA6000BF0837BD4680BD00BF00C0004096
:1023100000C4004000C8004080B483B000AF7860C3
:102320007B68244A93420ED07B68234A93420AD0AA
:102330007B68224A934206D07B68214A934202D0AE
:102340007B68204A934200BF7B6840F6AA62DA604D
:102350007B6800221A607B6841F205025A607B6844
:1023600000229A607B6800225A617B680022DA644E
:102370007B6841F6F9729A647B6800225A657B6833
:102380000C4A934202D17B6800221A657B680022C6
:102390009A657B68084A934203D07B68074A934258
:1023A00002D17B680022DA6500BF0C37BD465DF8BC
:1023B000047B704700C0004000C4004000C80040DB
:1023C00000E0004000E4004080B483B000AF03466A
:1023D0003960FB7197F90730002B0ADB3B68DAB2F2
:1023E0000C4997F907305201D2B20B4483F800230D
:1023F0000AE03B68DAB20849FB7903F00F03043BBB
:102400005201D2B20B441A7600BF0C37BD465DF8BC
:10241000047B704700E100E000ED00E080B584B08F
:1024200000AF78603960254B1B7883F00103DBB285
:10243000002B01D0224B3DE07B68002B01D1214BCA
:1024400038E0FEF7B5FFB8600023FB602BE01E49C3
:10245000FA6813469B0013449B000B4410331B780F
:1024600083F00103DBB2002B1AD0FA687B681A6094
:102470001549FA6813469B0013449B000B44103324
:1024800001221A701049FA6813469B0013449B00FE
:102490000B4400221A60B868FEF79AFF002309E097
:1024A000FB680133FB60FB680B2BD0DDB868FEF7DF
:1024B0008FFF064B18461037BD4680BD6C010020CB
:1024C000028000F0018000F070010020048000F024
:1024D00080B584B000AFFEF76BFFB860194B1B7876
:1024E000002B04D0B868FEF773FF174B25E0154B9F
:1024F00001221A70B868FEF76BFF0023FB600CE046
:102500001249FA6813469B0013449B000B44103396
:1025100000221A70FB680133FB60FB680B2BEFDDB8
:1025200004210020FFF750FF00233B70084B7B6025
:102530003B461846FFF716FA002318461037BD46EB
:1025400080BD00BF6C010020038000F070010020FE
:102550000005002080B58CB008AFF860B9607A60E3
:102560003B60BB6A07937B6A069397F8203005931C
:10257000FB6904933B7E0393002302933B68019322
:102580007B680093BB68FA680021002000F094F893
:10259000034618461037BD4680BD80B58CB008AFE5
:1025A000F860B9607A603B60BB6A07937B6A069308
:1025B00097F820300593FB6904933B7E0393002337
:1025C00002933B6801937B680093BB68FA68012122
:1025D000002000F071F8034618461037BD4680BD54
:1025E00080B586B000AFF8600B467A60FB72FA687F
:1025F00013469B0013449B000B4A13447B617B6989
:102600001B68002B0CD07B699B685A1C7B699A6005
:102610007B691B687A6991687A695268F86898479B
:1026200000BF1837BD4680BD7001002080B58AB05C
:1026300004AFF8600B467A60FB720123FB75FA6801
:1026400013469B0013449B001A4A13443B613B69A9
:102650001B68002B1AD03B699B685A1C3B699A6027
:102660003B691B683A6991683A695268F86898470B
:102670000346002B14BF01230023DBB283F00103C8
:10268000DBB2FB75FB7D03F00103FB753B69DB6887
:10269000013B1A46F97AFB7D0293019200230093D5
:1026A00000230022F868FFF787F900BF1837BD46FE
:1026B00080BD00BF7001002080B58EB004AFBA604D
:1026C0007B600346FB730B46BB73844B1B7883F024
:1026D0000103DBB2002B01D0814BFAE0BB680B2B6E
:1026E0000FD83B6B002B0CD07B6B002B09D03B6CC5
:1026F000B3F5806F05DCFB7B012B04D1BB6B002B9A
:1027000001D1784BE5E0BA6813469B0013449B0067
:10271000754A13447B627B6A1B7C83F00103DBB246
:10272000002B01D0714BD4E0FB7B002B09D1704909
:10273000BA6813465B0013449B000B446D4A1A6051
:1027400008E06B49BA6813465B0013449B000B44D6
:10275000694A1A606649BA6813465B0013449B00D5
:102760000B44043300221A6000233B76BB6C002B21
:1027700002D1FB7B012B02D101237B7601E00023F8
:102780007B767B68FB61BA6813465B0013449B0051
:10279000574A13443B6207F118031946B868FFF71C
:1027A00063F8BB7B002B19D197F83C30002B10D07D
:1027B00097F84430002B02D100237B740BE097F88C
:1027C0004430012B02D101237B7404E002237B748B
:1027D00001E003237B7403233B7418E097F83C303B
:1027E000002B10D097F84430002B02D100233B740B
:1027F0000BE097F84430012B02D101233B7404E035
:1028000002233B7401E003233B7403237B7497F89A
:102810004430BB740023FB7400233B7507F11003A5
:102820001A460121B868FFF765F8FB7B012B06D13A
:1028300007F110031A460021B868FFF75BF87B6ABE
:10284000BA6C1A607B6AFA6C5A607B6A00229A60E2
:102850007B6A3A6CDA600122BB689A40274B03F529
:10286000805308331A60FB7B002B0BD13B6C013B80
:1028700001937B6B00933B6B00220121B868FEF74C
:10288000A3FF25E0BB7B002B11D13B6C013B1A461B
:102890003B6C013B0393BB6B02933B6B0193009238
:1028A0007B6B3A6B0021B868FEF7B0FF10E03B6C21
:1028B000013B1A463B6C013B0393BB6B02937B6B62
:1028C00001930092BB6B3A6B0021B868FEF79EFF44
:1028D000002318462837BD4680BD00BF6C0100208C
:1028E000028000F0018000F070010020078000F0FD
:1028F00060020020E12500002D26000000200C4091
:1029000080B58CB000AF786047E07B685A1C7A6075
:102910001B7887F82E3097F82E30102B01D904231E
:1029200040E0002387F82F3010E097F82F307A68C6
:10293000127807F130010B4403F8142C7B68013343
:102940007B6097F82F30013387F82F3097F82F20CE
:1029500097F82E309A42E8D307F10B0307F11C01D8
:1029600097F82E00012202F02FFB0346FF2B01D027
:10297000022317E002F0E2FC0346002B0DD107F121
:102980000C0300220021002002F0B2F9BB7C03F00E
:102990000803002B01D0042304E07B681B78002B84
:1029A000B3D1002318463037BD4680BD80B483B014
:1029B00000AF0346FB7197F90730002B0BDBFB7967
:1029C00003F01F02074997F907305B09012000FA5D
:1029D00002F241F8232000BF0C37BD465DF8047BAE
:1029E000704700BF00E100E080B483B000AF034651
:1029F000FB7197F90730002B0CDBFB7903F01F020A
:102A0000074997F907305B09012000FA02F26033A9
:102A100041F8232000BF0C37BD465DF8047B7047AA
:102A200000E100E080B483B000AF7860044A7B68C6
:102A3000C2F81C3100BF0C37BD465DF8047B7047FF
:102A40000060004080B483B000AF074BD3F8103172
:102A50007B60054BD3F814217B68134018460C3774
:102A6000BD465DF8047B70470060004080B485B0CF
:102A700000AF78607B68FB60FB6893FAA3F3BB60F0
:102A8000BB68B3FA83F3DBB218461437BD465DF872
:102A9000047B704780B500AF0B20FFF7A5FF0B202C
:102AA000FFF784FF0120FFF79FFF0120FFF77EFF64
:102AB00000BF80BD80B584B000AF03463960FB71B4
:102AC000FEF776FCF860FB7905493A6841F8232067
:102AD000F868FEF77DFC00BF1037BD4680BD00BF23
:102AE000F002002080B584B000AF786019E078680B
:102AF000FFF7BCFFF8600122FB6802FA03F3DB4337
:102B00001A467B6813407B60094AFB6852F8233001
:102B1000BB60BB68002B04D0FB68DAB2BB68104610
:102B200098477B68002BE2D100BF1037BD4680BDBF
:102B3000F002002080B582B000AFFFF783FF0246AD
:102B400045F2555313407B607868FFF76BFF786858
:102B5000FFF7C8FF00BF0837BD4680BD80B582B013
:102B600000AFFFF76FFF02464AF6AA2313407B60CF
:102B70007868FFF757FF7868FFF7B4FF00BF0837A2
:102B8000BD4680BD80B483B000AF0346FB7197F9AA
:102B90000730002B0BDBFB7903F01F02074997F985
:102BA00007305B09012000FA02F241F8232000BF40
:102BB0000C37BD465DF8047B704700BF00E100E0C4
:102BC00080B483B000AF0346FB7197F90730002B48
:102BD0000CDBFB7903F01F02074997F907305B090B
:102BE000012000FA02F2603341F8232000BF0C37C5
:102BF000BD465DF8047B704700E100E080B400AFA3
:102C0000034B5B681846BD465DF8047B704700BF08
:102C10000000084080B483B000AF7860044A7B684D
:102C2000936100BF0C37BD465DF8047B704700BF61
:102C30000000084080B483B000AF7860064BDA69CA
:102C40007B68DB4304491340CB6100BF0C37BD46B2
:102C50005DF8047B704700BF0000084080B483B07B
:102C600000AF7860054BDA6904497B681343CB6198
:102C700000BF0C37BD465DF8047B7047000008407C
:102C800080B483B000AF064BDB697B60044B1A69EC
:102C90007B68134018460C37BD465DF8047B7047CF
:102CA0000000084080B586B000AF786000237B61EB
:102CB00000233B61204B1B7883F00103DBB2002B28
:102CC00001D01E4B33E0FEF773FBF86002E07B6936
:102CD00001337B617B69032B0ADC19497A6913464E
:102CE0009B001344DB000B441E331B78002BEED1FA
:102CF0007B69042B02D1134B3B6114E07B68002BF2
:102D00000FD00F497A6913469B001344DB000B4434
:102D10001E3301221A707A697B681A6000233B61B6
:102D200001E0094B3B61F868FEF752FB3B6918462E
:102D30001837BD4680BD00BFDA030020061000F042
:102D400030030020011000F0041000F080B500AF47
:102D50001D4B1B78002B01D0002332E001211B48C2
:102D6000FDF752FF02211A48FEF750F901211948D8
:102D7000FDF734FE01211748FDF746FF1648FFF71F
:102D80000DF90720FFF756FF0720FFF743FFFFF776
:102D90002DF91E20FFF714FF1E20FFF7F3FEA022DF
:102DA00000210E4802F070FF0D4B00221A700D4BEF
:102DB00000221A700C4B00221A60034B01221A7079
:102DC0000023184680BD00BFDA0300200043020044
:102DD00002001E0080161200946C000030030020D8
:102DE000D8030020D9030020D403002090B58FB071
:102DF00000AFF8607A603B600B46FB720023FB6219
:102E0000944B1B7883F00103DBB2002B01D0924B73
:102E100097E1FB68032B01D9904B92E1FEF7C8FACA
:102E2000B8628F49FA6813469B001344DB000B44D9
:102E30001E331B7883F00103DBB2002B04D0B86A89
:102E4000FEF7C6FA874B7CE17B68002B0BD13B6811
:102E5000002B03D03B68B96CF8689847B86AFEF756
:102E6000B7FA00236DE1FFF7C9FE38637C49FA68C1
:102E700013469B001344DB000B4418333A681A6076
:102E80007B6819464FF000024FF000034FF000043A
:102E9000D40344EA5144CB0313F5FA7044F1000122
:102EA0004FF47A724FF0000302F036FD03460C46F1
:102EB000194622466A4CF86803469B000344DB002F
:102EC00023440833C3E90012FB7A012B29D17B6824
:102ED0004FF47A7202FB03F16148FA6813469B00D3
:102EE0001344DB0003440833D3E900341A46134685
:102EF0001B019B1A5B00CB1A18465949FA68134606
:102F00009B001344DB000B44103318605449FA68EB
:102F100013469B001344DB000B4414330F221A604A
:102F200017E04F49FA6813469B001344DB000B443B
:102F30000833D3E9003413F1FF3144F1FF32484C38
:102F4000F86803469B000344DB0023440833C3E9CD
:102F500000124349FA6813469B001344DB000B44FC
:102F60000833D3E90034591C44F100023C4CF868A2
:102F700003469B000344DB002344C3E900123849A5
:102F8000FA6813469B001344DB000B441C330122F8
:102F90001A703349FA6813469B001344DB000B4454
:102FA0001F33FA7A1A702E49FA6813469B001344AD
:102FB000DB000B442033BA6C1A602B4B1B78002BC0
:102FC00004D0B86AFEF704FA0023BAE0274B1B6866
:102FD000B3F1FF3F04D0254B1B680133234A136034
:102FE000234B1B7883F00103DBB2002B46D03B6BF5
:102FF00023F07F431F4A13600220FFF70BFE18499E
:10300000FA6813469B001344DB000B44D3E90034F9
:10301000C7E90634184B7B617B6919464FF0000203
:10302000D7E90634A24208BF994201D20B461446A2
:103030003B613A6B3B69134423F07F431946002000
:10304000FEF77CFF0220FFF709FE094B01221A70F0
:103050006AE000BFDA030020061000F0021000F062
:1030600030030020031000F0D8030020D403002018
:10307000D9030020D00300209BFFFF00334B1B68C7
:10308000012B51D13249FA6813469B001344DB00EF
:103090000B441C3300221A700220FFF7CBFD3B6B60
:1030A0001A022C4B1B681B02D31A1B0A7B637B6B17
:1030B0006FF07F42934201D100237B63786B00F075
:1030C000EDF800F053FAFB6A002B09D12049FA68A9
:1030D00013469B001344DB000B441C3301221A707F
:1030E000FB6A0133FB62386B00F072FAFFF786FD72
:1030F00038633B6B1A02174B1B681B02D31A1B0A5F
:103100007B630020FEF7FCFE03461A02114B1B688E
:103110001B02D31A1B0A7B620F4B1B78002B03D0B8
:103120007A6B7B6A9A42B7D2084B1B68002B04D09B
:10313000064B1B68013B054A1360B86AFEF748F965
:10314000002318463C37BD4690BD00BFD403002085
:1031500030030020D0030020D903002080B584B0C4
:1031600000AF78601A4B1B7883F00103DBB2002BB1
:1031700001D0184B28E07B68032B01D9164B23E0C4
:10318000FEF716F9F86015497A6813469B00134458
:10319000DB000B441E331B7883F00103DBB2002BF2
:1031A00004D0F868FEF714F90D4B0DE00B497A686E
:1031B00013469B001344DB000B441C3300221A709F
:1031C000F868FEF705F9002318461037BD4680BDA4
:1031D000DA030020061000F0021000F03003002097
:1031E000031000F080B586B000AFFEF7E1F838615B
:1031F000FFF746FDF860FB6823F003031846FFF76E
:1032000009FDFB6803F00203002B39D0204B01229B
:103210001A70FFF7F3FC78610220FFF70BFD7B6962
:103220001A021C4B1B681B02D31A1B0ABB60B8682E
:1032300000F034F800F09AF9786900F0C9F9FFF766
:10324000DDFC78617B691A02124B1B681B02D31AE2
:103250001B0ABB600020FEF753FE03461A020D4B0B
:103260001B681B02D31A1B0A7B600B4B1B78002BBD
:1032700003D0BA687B689A42CED2054B00221A70FE
:103280003869FEF7A5F800BF1837BD4680BD00BFFE
:10329000D8030020D0030020D9030020F0B587B068
:1032A00000AF786000237B6156E1AF497A6913462D
:1032B0009B001344DB000B441D3300221A70AA4903
:1032C0007A6913469B001344DB000B441C331B78C4
:1032D000002B00F03E81A4497A6913469B001344F9
:1032E000DB000B44D3E900347A6811464FF000024A
:1032F000A24208BF99421AD29B497A6913469B00A1
:103300001344DB000B44D3E900567B684FF0000404
:1033100029463246C91A62EB0402934C7869034687
:103320009B000344DB002344C3E9001211E18E49F2
:103330007A6913469B001344DB000B441F331B7850
:10334000002B0AD188497A6913469B001344DB009D
:103350000B441C3300221A70E6E07B6819464FF0DC
:103360000002814C786903469B000344DB00234440
:10337000D3E900560B4614465B1B64EB0604C7E911
:10338000023479497A6913469B001344DB000B44ED
:103390000833D3E9004574497A6913469B00134406
:1033A000DB000B440833D3E90023D7E9020102F024
:1033B000B3FAA41A65EB030521462A466A4C7869DC
:1033C00003469B000344DB002344C3E90012664923
:1033D0007A6913469B001344DB000B4410331B68CF
:1033E000002B50DD60497A6913469B001344DB00D3
:1033F0000B44143319685C487A6913469B001344E4
:10340000DB00034410331B68194457487A6913469C
:103410009B001344DB0003441433196052497A695A
:1034200013469B001344DB000B4414331B681D2B15
:103430007AD94D497A6913469B001344DB000B444B
:10344000D3E90034591C44F10002474C7869034623
:103450009B000344DB002344C3E9001242497A691C
:1034600013469B001344DB000B4414331B68A3F189
:103470001E013D487A6913469B001344DB00034458
:103480001433196050E038497A6913469B0013449D
:10349000DB000B441433196833487A6913469B00E8
:1034A0001344DB00034410331B68C91A2E487A69A1
:1034B00013469B001344DB000344143319602A496C
:1034C0007A6913469B001344DB000B4414331B68DA
:1034D0001D2B29D924497A6913469B001344DB002C
:1034E0000B44D3E9003413F1FF3144F1FF321E4C99
:1034F000786903469B000344DB002344C3E90012C0
:1035000019497A6913469B001344DB000B441433BA
:103510001B68A3F11E0114487A6913469B001344EB
:10352000DB000344143319600F497A6913469B008A
:103530001344DB000B4418331B68002B09D00A49E5
:103540007A6913469B001344DB000B441D330122B0
:103550001A707B6901337B617B69032B7FF7A5AE12
:1035600000BF1C37BD46F0BD3003002090B583B0CE
:1035700000AF00237B6022E014497A6813469B0069
:103580001344DB000B441D331B78002B14D00F4970
:103590007A6813469B001344DB000B4418331C6805
:1035A00078680A497A6813469B001344DB000B4491
:1035B00020331B681946A0477B6801337B607B681A
:1035C000032BD9DD00BF0C37BD4690BD3003002072
:1035D00090B58BB000AF78604FF0FF334FF0FF3401
:1035E000C7E9063400237B6227E038497A6A13462C
:1035F0009B001344DB000B441C331B78002B19D0B9
:1036000032497A6A13469B001344DB000B44D3E92A
:103610000012D7E90634A24208BF99420AD22B49C8
:103620007A6A13469B001344DB000B44D3E9003451
:10363000C7E906347B6A01337B627B6A032BD4DDE6
:10364000234B00221A70D7E90634B4F1FF3F08BFBC
:10365000B3F1FF3F35D0D7E90634C7E904341D4B39
:10366000FB60FB6819464FF00002D7E90434A24220
:1036700008BF994201D20B461446C7E90634164BDF
:103680001B7883F00103DBB2002B05D07B6823F0AD
:103690007F43124A136002E0104A7B6813600220E5
:1036A000FFF7B8FABA697B68134423F07F431946E1
:1036B0000020FEF743FC064B01221A700220FFF7A0
:1036C000CDFA00BF2C37BD4690BD00BF30030020AF
:1036D000D90300209BFFFF00D8030020D003002067
:1036E00080B483B000AF0346FB7197F90730002B1D
:1036F0000BDBFB7903F01F02074997F907305B09E1
:10370000012000FA02F241F8232000BF0C37BD4629
:103710005DF8047B704700BF00E100E080B483B037
:1037200000AF0346FB7197F90730002B10DBFB79E4
:1037300003F01F02094997F907305B09012000FADD
:1037400002F2203341F82320BFF34F8FBFF36F8F76
:1037500000BF0C37BD465DF8047B704700E100E018
:1037600080B483B000AF0346FB7197F90730002B9C
:103770000CDBFB7903F01F02074997F907305B095F
:10378000012000FA02F2603341F8232000BF0C3719
:10379000BD465DF8047B704700E100E080B400AFF7
:1037A000054B1B69044A23F00403136130BF00BFBB
:1037B000BD465DF8047B704700ED00E080B483B047
:1037C00000AF78607B680D4A93420BD07B680C4A4F
:1037D000934207D07B680B4A934203D07B680A4A26
:1037E000934201D1012300E0002303F00103DBB287
:1037F00018460C37BD465DF8047B70470000014059
:103800000004014000080140000C014080B483B076
:1038100000AF78604FF6FF7318460C37BD465DF871
:10382000047B704780B584B000AFF860B9607A60FF
:10383000F868FFF7EBFFFA68BB6803331B0113441A
:1038400004337A681A6000BF1037BD4680BD80B46B
:1038500083B000AF78607B685B6A18460C37BD4662
:103860005DF8047B704780B582B000AF78600B468E
:10387000FB707868FFF7A2FFFB78002B03D07B6812
:1038800001225A6002E07B6802225A6000BF0837BA
:10389000BD4680BD80B483B000AF786039607B687E
:1038A0003A689A6100BF0C37BD465DF8047B7047EB
:1038B00080B483B000AF786039607B68DA683B68B9
:1038C000DB431A407B68DA6000BF0C37BD465DF809
:1038D000047B704780B483B000AF786039607B6848
:1038E000DA683B681A437B68DA6000BF0C37BD4674
:1038F0005DF8047B704780B483B000AF78607B686C
:103900001B6918460C37BD465DF8047B704780B5CF
:1039100082B000AF786039607868FFF777FF7B6826
:103920003A68DA6100BF0837BD4680BDF0B589B09E
:1039300000AF07F10C0300221A605A609A601A73F4
:1039400001233B733B4600221A605A609A600223AF
:10395000BB7101213548FDF757F93B461A46002156
:103960003348FEF7E9FB4FF6FF713148FFF7CFFF11
:103970000023BB7307F10C0319462D48FEF768FBC3
:103980002C48FDF7A9F902462B4B1A602A4B1B68FD
:10399000BA7BD340284A1360BB7B0133DBB2BB73D5
:1039A000BB7B0A2B04D8244B1B68244A9342E1D8E2
:1039B0002348FDF791F90246224BB3FBF2F3FB617A
:1039C0001D4B1B6819464FF00002FB694FF00004C5
:1039D00003FB02F501FB04F02844A1FB03340219A8
:1039E000144619494FF000025D1844EB02062846C0
:1039F0003146164A4FF0000301F08EFF03460C4695
:103A00001A46134B1A60134B00221A7010210848F3
:103A1000FFF74EFF0220FFF7A3FE0220FFF760FE34
:103A2000002318462437BD46F0BD00BF00520400F5
:103A30000000014040810400DC03002080841E005F
:103A40007000020000B0710B20A1070040420F007F
:103A5000E0030020E403002080B500AF0220FFF760
:103A60005DFE10210A48FFF723FF10210848FFF7E9
:103A700011FF0220FFF774FE00210548FFF7F3FE57
:103A800000210448FDF7C0F80023184680BD00BFA0
:103A90000000014000520400F0B585B000AF78602E
:103AA000214B1B6819464FF000027B684FF0000461
:103AB00003FB02F501FB04F02844A1FB03340219C7
:103AC00014461A494FF000025D1844EB02062846DE
:103AD0003146174A4FF0000301F01EFF03460C4623
:103AE000C7E902340DE04FF6E85000F041F8D7E99D
:103AF000023410494FF0FF325D1844EB0206C7E96B
:103B00000256D7E902344FF6E8514FF00002A242C4
:103B100008BF9942E7D33B89184600F029F80023F3
:103B200018461437BD46F0BDDC03002020A1070075
:103B300040420F001802FFFF80B582B000AF0A4874
:103B4000FFF7D9FE78607B6803F01003002B06D0E6
:103B500010210548FFF79EFE044B01221A7000BF9A
:103B60000837BD4680BD00BF00000140E4030020CF
:103B700080B586B000AF0346FB80FB88002B35D0B4
:103B8000FDF716FC78611B48FFF761FE01461A4BF2
:103B90001B683B61FB88FB81FA893B69934238BF14
:103BA00013460B449BB2BB60BA6800211148FFF773
:103BB00039FE10210F48FFF76DFE10210D48FFF769
:103BC00089FE7869FDF704FC01E0FFF7E7FD0B4B88
:103BD0001B78DBB283F00103DBB2002BF5D1074B7E
:103BE00000221A7010210348FFF762FE00BF183749
:103BF000BD4680BD00000140E0030020E40300203A
:103C0000064880470649074A074B9A42BEBF51F80B
:103C1000040B42F8040BF8E7FCF782FAAD3D000014
:103C2000D070000000000020D8000020FEE700BF98
:103C300080B400AF044BDB6C1B0EDBB21846BD46F4
:103C40005DF8047B704700BFB081E00F80B582B0A3
:103C500000AF00F01FF87860074B5B6803F00F03BC
:103C60007A6822FA03F37B60044A7B6813607B68FE
:103C700018460837BD4680BD00800C404800002033
:103C800080B400AF024B1846BD465DF8047B704718
:103C9000006CDC0280B582B000AF334BDB6A03F40A
:103CA0007053B3F5805F0AD0B3F5005F03D0B3F56E
:103CB000006F08D00BE02D4B1B687B6047E04FF492
:103CC00000437B6043E02A4B1B687B603FE0264B50
:103CD000DB6803F4E063B3F5007F1BD0B3F5007F2E
:103CE00005D8002B24D0B3F5807F16D02BE0B3F598
:103CF000806F09D0B3F5A06F03D0B3F5407F06D035
:103D000021E01C4B7B6021E01B4B7B601EE01B4BCA
:103D10007B601BE01A4B7B6018E0FFF789FF0346CE
:103D2000122B02D9174B7B6010E0174B7B600DE024
:103D3000FFF77EFF0346122B02D9144B7B6005E090
:103D4000134B7B6002E000237B6000BF00BF064B8B
:103D50001B689B0B03F0070301337A68B2FBF3F394
:103D600018460837BD4680BD00800C404400002046
:103D700040000020003FAB01406F4001809FD50014
:103D8000C0D8A70040B56400C0CF6A00804F1200C1
:103D900040420F0080B400AF034B1B681846BD467D
:103DA0005DF8047B704700BF4000002080B400AF86
:103DB000074B084A9A60064BD3F88830044A43F40C
:103DC0007003C2F8883000BFBD465DF8047B7047C1
:103DD00000ED00E00000000080B400AF4FF40043AD
:103DE0001846BD465DF8047B704780B400AF4FF4C1
:103DF0007A731846BD465DF8047B704780B400AF07
:103E0000034B1B681846BD465DF8047B704700BF36
:103E10004400002080B483B000AF03463960FB71DA
:103E2000FB79002B0DD0FB79012B0AD0FB79022BFB
:103E300007D0FB79032B04D0FB79042B01D0FB794D
:103E4000052B01223B6802FA03F30849FA79184668
:103E50001346DB0013449B000B441033186000BF73
:103E60000C37BD465DF8047B704700BF0060004022
:103E700080B483B000AF03463960FB71FB79002B3F
:103E80000DD0FB79012B0AD0FB79022B07D0FB79EF
:103E9000032B04D0FB79042B01D0FB79052B0122E5
:103EA0003B6802FA03F30849FA7918461346DB0027
:103EB00013449B000B441833186000BF0C37BD46F9
:103EC0005DF8047B704700BF0060004080B582B0A1
:103ED00000AF01211048FCF797FE01210F48FCF7C5
:103EE00093FE00237B600FE00D4A7B6812F83300DD
:103EF0000B4A7B68DB001344596800230422FDF75A
:103F000021FF7B6801337B607B68012BECD90023A8
:103F100018460837BD4680BD4081040000D2040029
:103F2000986C000080B582B000AF78607B68002B91
:103F300010DB7B68012B0DD8094A7B6812F833002F
:103F4000074A7B68DB0013445B681946FFF762FF92
:103F5000002301E04FF0FF3318460837BD4680BD0F
:103F6000986C000080B582B000AF78607B68002B51
:103F700010DB7B68012B0DD8094A7B6812F83300EF
:103F8000074A7B68DB0013445B681946FFF770FF44
:103F9000002301E04FF0FF3318460837BD4680BDCF
:103FA000986C0000B0B58CB000AF78603960914B70
:103FB00007F10C041D460FCD0FC495E8030084E8FB
:103FC00003007B68002B01D18B4B0EE13B68002B7B
:103FD00001D18A4B09E158220021786801F054FE92
:103FE0003B681B68864A93420AD17B68854ADA643B
:103FF0007B68854A5A627B684FF440229A6221E0CE
:104000003B681B68814A93420AD17B68804ADA6424
:104010007B68804A5A627B684FF450229A6211E0B2
:104020003B681B687C4A93420AD17B687B4ADA640E
:104030007B687B4A5A627B684FF460229A6201E097
:104040006E4BD2E07A683B6814461D460FCD0FC414
:1040500095E8070084E807003B685B7D012B01D1F0
:104060000123BB763B689B7D002B02D10023BB83E1
:1040700019E03B689B7D012B03D14FF40073BB8398
:1040800011E03B689B7D022B03D14FF48073BB830F
:1040900009E03B689B7D032B03D14FF44073BB8346
:1040A00001E0564BA1E03B681B7D012B05D10023AD
:1040B0007B764FF47A737B6102E03B689B687B619F
:1040C00001215848FCF7A0FD01215748FCF79CFD51
:1040D0007B68DB6C01211846FCF796FD3B68DB68CA
:1040E000032B03D93B68DB68102B01D9434B7CE0E1
:1040F0003B68DB68033BFB62FB6ADBB23B763B68F9
:104100001B6807F10C0211461846FEF797F83B684A
:104110001B7D002B0BD13B68DB7D002B07D13B685F
:104120001B681A683B681B6842F480321A603B685F
:10413000DB7D002B09D13B681B791B021A463B68CB
:104140001B6842F00F025A6508E03B681B791B02AE
:104150001A463B681B6842F00B025A6501217868D9
:1041600000F000FBB862BB6A002B01D0BB6A3CE0E8
:10417000FDF71EF978622D4B1B7883F00103DBB24B
:10418000002B08D0294B01221A70786AFDF720F91C
:10419000FEF7DCFD02E0786AFDF71AF93B681B7D4B
:1041A000012B09D17B6854331846FEF77BFD03468B
:1041B000002B01D01E4B18E0FEF78AF97B681C33F8
:1041C00000211846FEF72AF90346002B01D0194BAF
:1041D0000BE07B68203300211846FEF71FF90346E9
:1041E000002B01D0134B00E0002318463037BD46AA
:1041F000B0BD00BFA86C0000012000F0022000F05C
:1042000000C000400002040001000C0000C4004097
:104210000012040001000D0000C80040002204004C
:1042200001000E004081040000D20400E5030020DC
:10423000042000F0092000F080B586B000AFF860DF
:10424000B9607A60FB681B7D012B01D10D4B15E035
:104250007A68B968F86800F053FC78617B69002BD4
:1042600001D07B690AE0084B7A68B968F86800F009
:104270006BFBF86800F07CFCFB685B6C1846183739
:10428000BD4680BD082000F0E142000080B586B048
:1042900000AFF860B9607A60FB681B7D012B01D12B
:1042A0000D4B15E07A68B968F86800F029FC786170
:1042B0007B69002B01D07B690AE0084B7A68B968FA
:1042C000F86800F0AFFBF86800F052FCFB685B6C2C
:1042D00018461837BD4680BD082000F0E1420000B6
:1042E00080B485B000AFF860B9607A60FB68BA68E6
:1042F0005A64FB68012283F8502000BF1437BD4682
:104300005DF8047B7047000080B485B000AF786032
:1043100039607B681B79FB607B681B68A04A93420D
:1043200040F00981FB68002B1AD0FB68012B15D0E7
:10433000FB68022B10D0FB68032B0BD0FB68042B0F
:1043400006D0FB68052B01D102230AE0FF2308E019
:10435000012306E0042304E0022302E0042300E03A
:1043600004233A681370FB68002B1AD0FB68012BFA
:1043700015D0FB68022B10D0FB68032B0BD0FB6819
:10438000042B06D0FB68052B01D102230AE0FF2392
:1043900008E0012306E0042304E0022302E00423F2
:1043A00000E004233A689370FB68002B1AD0FB6886
:1043B000012B15D0FB68022B10D0FB68032B0BD010
:1043C000FB68042B06D0FB68052B01D101230AE012
:1043D000FF2308E0012306E0022304E0022302E0B9
:1043E000042300E004233A681371FB68002B1AD001
:1043F000FB68012B15D0FB68022B10D0FB68032B48
:104400000BD0FB68042B06D0FB68052B01D10123E0
:104410000AE0FF2308E0012306E0022304E0022370
:1044200002E0042300E004233A689371FB68002B48
:104430001AD0FB68012B15D0FB68022B10D0FB684B
:10444000032B0BD0FB68042B06D0FB68052B01D196
:1044500000230AE0FF2308E0072306E00D2304E021
:104460000B2302E0072300E00A233A685370FB683D
:10447000002B1AD0FB68012B15D0FB68022B10D043
:10448000FB68032B0BD0FB68042B06D0FB68052BC5
:1044900001D101230AE0FF2308E0082306E00C23F2
:1044A00004E00A2302E0062300E00B233A68D370FD
:1044B000FB68002B1AD0FB68012B15D0FB68022B80
:1044C00010D0FB68032B0BD0FB68042B06D0FB68D5
:1044D000052B01D10D230AE0FF2308E00D2306E0A0
:1044E0000F2304E0092302E0052300E00C233A68CF
:1044F0005371FB68002B1AD0FB68012B15D0FB68A9
:10450000022B10D0FB68032B0BD0FB68042B06D0CA
:10451000FB68052B01D10E230AE0FF2308E00E23E0
:1045200006E00E2304E0082302E0042300E00D234C
:104530003A68D3710AE17B681B681A4A934240F0DB
:104540009580FB68002B0BD0FB68012B06D0FB6825
:10455000022B01D1032304E0FF2302E0032300E048
:1045600002233A681370FB68002B0BD0FB68012B09
:1045700006D0FB68022B01D1032304E0FF2302E0F5
:10458000032300E002233A689370FB68002B0FD0EE
:10459000FB68012B0AD0FB68022B05D1052308E03C
:1045A00000C0004000C40040FF2302E0032300E0FD
:1045B00001233A681371FB68002B0BD0FB68012BB9
:1045C00006D0FB68022B01D1052304E0FF2302E0A3
:1045D000032300E001233A689371FB68002B0BD0A2
:1045E000FB68012B06D0FB68022B01D1072304E0F6
:1045F000FF2302E0002300E000233A685370FB68C9
:10460000002B0BD0FB68012B06D0FB68022B01D1DD
:10461000062304E0FF2302E0012300E001233A68BF
:10462000D370FB68002B0BD0FB68012B06D0FB6816
:10463000022B01D1002304E0FF2302E0022300E06B
:1046400007233A685371FB68002B0BD0FB68012BE2
:1046500006D0FB68022B01D1012304E0FF2302E016
:10466000032300E008233A68D3716FE07B681B687E
:104670003A4A934268D1FB68002B06D0FB68012BB5
:1046800001D1012302E0FF2300E002233A68137006
:10469000FB68002B06D0FB68012B01D1012302E04F
:1046A000FF2300E002233A689370FB68002B06D0DA
:1046B000FB68012B01D1012302E0FF2300E002236C
:1046C0003A681371FB68002B06D0FB68012B01D1FF
:1046D000012302E0FF2300E002233A689371FB68A4
:1046E000002B06D0FB68012B01D1032302E0FF233E
:1046F00000E002233A685370FB68002B06D0FB6889
:10470000012B01D1042302E0FF2300E003233A68D8
:10471000D370FB68002B06D0FB68012B01D1052369
:1047200002E0FF2300E004233A685371FB68002B8A
:1047300006D0FB68012B01D1062302E0FF2300E035
:1047400005233A68D37101E0054B00E000231846C9
:104750001437BD465DF8047B704700BF00C80040B9
:10476000022000F080B586B000AF78600B46FB7089
:1047700007F10C0319467868FFF7C6FD78617B697D
:10478000002B01D07B69AAE0BB7C1A467B68DA6308
:10479000FB7C1A467B681A64FB78002B6BD07B6825
:1047A0001B7D002B33D1387B7B7B194600230422F1
:1047B000FDF7C8FAB87BFB7B194600230122FDF701
:1047C000C1FA7B689B7D002B03D07B689B7D012B0E
:1047D00007D1387C7B7C194600230422FDF7B2FA0E
:1047E00006E0387C7B7C194601230422FDF7AAFAF7
:1047F0007B68DB7D002B71D17B68DB6BD8B27B687B
:104800001B6C194601230422FDF79CFA66E0387BF5
:104810007B7B194600230122FDF794FAB87BFB7BD2
:10482000194600230422FDF78DFA7B689B7D002B3F
:1048300003D07B689B7D012B07D1387C7B7C19469C
:1048400000230222FDF77EFA06E0387C7B7C1946C5
:1048500001230222FDF776FA7B68DB7D002B3DD138
:104860007B68DB6BD8B27B681B6C19460123022284
:10487000FDF768FA32E0387B7B7B19460023022281
:10488000FDF760FAB87BFB7B194600230222FDF797
:1048900059FA7B689B7D002B03D07B689B7D012BA5
:1048A00007D1387C7B7C194600230222FDF74AFAA7
:1048B00006E0387C7B7C194601230222FDF742FA90
:1048C0007B68DB7D002B09D17B68DB6BD8B27B6812
:1048D0001B6C194600230022FDF734FA002318460A
:1048E0001837BD4680BD80B586B000AFF860B960AE
:1048F0007A60FCF75DFD78617B683B613B69002273
:104900005A643B69002283F848203B6900229A637D
:104910003B691B7D012B04D13B695B6D1846FEF79B
:104920001DFC3B69DB6A002B06D03B69DB6A3A69F8
:10493000526B0021386998477869FCF749FD0123DB
:1049400018461837BD4680BD80B58EB006AFF860FA
:10495000B9607A603B60FB68002283F85020FB68F6
:104960007A685A63FB681B684FF44062DA60FB6840
:104970003A68DA62FB68DB68082B02D90123FB7511
:1049800001E00023FB75FB68DB68092B08D9FB6895
:104990001B682433FB61FB681B683C33BB6114E07C
:1049A000FB68DB68092B08D1FB681B681833FB61C7
:1049B000FB681B683033BB6107E0FB681B681C3376
:1049C000FB61FB681B683433BB61FB68186AFB68DA
:1049D000996AFB680493124B0393FB7D02937B68F7
:1049E000019301230093FB69BA68FDF7D6FDFB68CC
:1049F000D869FB68596AFB6803F11002002304932D
:104A000000230393FB7D02937B68019300230093B3
:104A10001346BA69FDF79EFD00BF2037BD4680BD35
:104A2000E748000080B58EB006AFF860B9607A60E4
:104A30003B60FB68002283F85020FB687A685A6369
:104A4000FB681B684FF44062DA60FB683A68DA6220
:104A5000FB68DB68082B02D90123FB7501E000230A
:104A6000FB75FB68DB68092B08D9FB681B682433DE
:104A7000FB61FB681B683C33BB6114E0FB68DB68CF
:104A8000092B08D1FB681B681833FB61FB681B68A6
:104A90003033BB6107E0FB681B681C33FB61FB68BC
:104AA0001B683433BB61FB68186AFB68996AFB6852
:104AB00003F13002FB680493104B0393FB7D0293D8
:104AC0007B68019300230093FB69FDF766FDFB689B
:104AD000D869FB68596A0023049300230393FB7D84
:104AE00002937B68019301230093BB68BA69FDF7C9
:104AF00031FD00BF2037BD4680BD00BFE748000044
:104B000080B586B000AFF860B9607A60FB68002BB2
:104B100001D1144B21E0BB68002B06D07B68002B31
:104B200003D07B68B3F5806F01DD0F4B15E0FCF718
:104B30003FFC7861FB6893F84830DBB2002B04D06F
:104B40007869FCF745FC094B07E0FB68012283F814
:104B500048207869FCF73CFC002318461837BD460E
:104B600080BD00BF012000F0022000F0032000F013
:104B700080B582B000AF78600020FCF737FC0346B8
:104B8000002B0CD001E0FCF7B1FD7B6893F85030AE
:104B9000DBB283F00103DBB2002BF4D109E000BFEC
:104BA0007B6893F85030DBB283F00103DBB2002B5B
:104BB000F6D100BF0837BD4680BD80B500AFFEF717
:104BC000B5FE00F09BFB0A20FEF766FF00F09EFB9F
:104BD0006420FEF761FF00F0EBF9FEF73DFF00BF38
:104BE00080BD80B584B000AF786001233B7207F1CF
:104BF000080307F108010822012000F0E5F97B68AD
:104C0000002B1DD03A7A7B681A707B7A1B029AB20D
:104C1000BB7A9BB213449AB27B685A80FA7A7B685B
:104C20001A713B7B1B029AB27B7B9BB213449AB2F4
:104C30007B68DA80BA7B7B681A72FA7B7B685A726F
:104C400000BF1037BD4680BD80B584B000AF0346BD
:104C5000FB710B46BB711346BB8031233B72FB7962
:104C60007B72BB79BB72BB881B0A9BB2DBB2FB7247
:104C7000BB88DBB23B7300237B730023BB7307F15C
:104C800008031946072000F015F900BF1037BD468C
:104C900080BD90B585B000AF0446084611461A465F
:104CA0002346FB710346BB710B46BB801346FB706A
:104CB00032233B72FB797B72BB79BB72BB881B0AC8
:104CC0009BB2DBB2FB72BB88DBB23B73FB787B73BE
:104CD00097F82030BB7397F82430FB7307F1080373
:104CE0001946082000F0E6F800BF1437BD4690BD15
:104CF00080B584B000AF3B600346FB710B46BB71CF
:104D000013467B7120233B72FB797B72BB79BB72AC
:104D10007B79FB7207F1080307F1080108220420E0
:104D200000F052F93B68002B17D03A7A3B681A70B2
:104D30007A7A3B685A70BA7A3B689A70FA7A3B681A
:104D4000DA703A7B3B681A717A7B3B685A71BA7B9E
:104D50003B689A71FA7B3B68DA7100BF1037BD4639
:104D600080BD80B584B000AF0346FB7134233B7334
:104D7000FB797B7307F10C031946022000F09AF8C7
:104D800000BF1037BD4680BD80B584B000AF03467C
:104D90003960FB7115233B73FB797B7307F10C03BF
:104DA00007F10C010222022000F00EF93B68002BF3
:104DB00005D03A7B3B681A707A7B3B685A7000BF1B
:104DC0001037BD4680BD80B582B000AF0346396064
:104DD000FB71FA793B680021662000F0B5F800BF4E
:104DE0000837BD4680BD80B582B000AF034639604C
:104DF000FB71FA793B680021772000F07BF800BF57
:104E00000837BD4680BD80B584B000AF78603323DD
:104E10003B7307F10C0307F10C010222012000F0A3
:104E2000D3F87B68002B05D03A7B7B681A707A7BBD
:104E30007B685A7000BF1037BD4680BD80B584B016
:104E400000AF03463960FB7142F21073FB8100230F
:104E50007B731CE000F062FA442000F079FA07F15D
:104E60000C03184600F086FA3B7BFF2B0AD1FB7936
:104E7000002B04D0FB793968184600F0A1FA00F045
:104E800055FA07E000F052FAFB89013BFB81FB89F0
:104E9000002BDFD13B7BFF2B04D1054B01221A7085
:104EA0003B7B7B737B7B18461037BD4680BD00BFC4
:104EB000E603002080B582B000AF03463960FB7185
:104EC00001E000F06BF80A4B1B78002BF9D000F0E2
:104ED00025FAFB793968184600F05EFA00F026FAE8
:104EE000034B00221A7000BF0837BD4680BD00BFCB
:104EF000E603002080B582B000AF3B600346FB7143
:104F00000B46BB7113467B71BB79002B06D001E0C9
:104F100000F044F80B4B1B78002BF9D000F0FEF9A1
:104F2000FB79184600F014FA7B793968184600F0CE
:104F300047FA00F0FBF9034B00221A7000BF083754
:104F4000BD4680BDE603002080B582B000AF3B6067
:104F50000346FB710B46BB7113467B71BB79002B7B
:104F600006D001E000F01AF80B4B1B78002BF9D0AB
:104F700000F0D4F9FB79184600F0EAF97B7939683A
:104F8000184600F009FA00F0D1F9034B00221A701C
:104F900000BF0837BD4680BDE603002080B500AFE6
:104FA00000210020FFF74AFF0346184680BD00009D
:104FB00080B400AF034B00221A7000BFBD465DF8FD
:104FC000047B7047E603002080B584B000AFB96071
:104FD0007B600346FB731346BB73FB7BB9681846C3
:104FE000FFF768FFBB7B79681846FFF727FF03468A
:104FF00018461037BD4680BD80B582B000AF7860DE
:1050000039607B68002B01D10E4B16E03B689B7822
:1050100003F00803002B0FD00320FFF7A2FE0021AE
:105020000220FFF7B1FE7B681B6A002B04D07B686F
:105030001B6A002178689847002318460837BD4648
:1050400080BD00BF019000F080B485B000AF7860F3
:1050500039607B6803F10473DA003B6813449B00FA
:10506000FB60FB681B6818461437BD465DF8047B7F
:105070007047000080B483B000AF78603960094B9E
:10508000D3F824213B68DB431A4079683B680B4026
:1050900004491343C1F8243100BF0C37BD465DF805
:1050A000047B70470060004080B582B000AF0346CB
:1050B0003960FB71FB79002B0DD0FB79012B0AD0F5
:1050C000FB79022B07D0FB79032B04D0FB79042B4F
:1050D00001D0FB79052BFA791346DB0013449B00C2
:1050E0001C3303F1804303F5C04339681846FFF7CA
:1050F000ABFF034618460837BD4680BD80B483B079
:1051000000AF03463960FB71FB79002B0DD0FB79B2
:10511000012B0AD0FB79022B07D0FB79032B04D09B
:10512000FB79042B01D0FB79052B01223B6802FAA5
:1051300003F30849FA7918461346DB0013449B0031
:105140000B441433186000BF0C37BD465DF8047B78
:10515000704700BF0060004080B483B000AF0346DA
:105160003960FB71FB79002B0DD0FB79012B0AD044
:10517000FB79022B07D0FB79032B04D0FB79042B9E
:1051800001D0FB79052B01223B6802FA03F30849A1
:10519000FA7918461346DB0013449B000B44103386
:1051A000186000BF0C37BD465DF8047B704700BF38
:1051B0000060004080B584B002AF396011461A46E5
:1051C0000346FB710B46BB7113467B71BA79F879C4
:1051D0003B7C01937B79009313463A683968FCF76E
:1051E00047FD00BF0837BD4680BD000080B584B0D4
:1051F00002AF78600B46FB700123042203210320D9
:10520000FCF7A0FD0023042203210220FCF79AFDF5
:105210000123022200210220FCF794FDFB78002BE1
:105220003ED001212848FBF7EFFC002301220F218B
:105230000020FCF787FD002301220E210420FCF74B
:1052400081FD0023042200210020FCF77BFD0023C8
:10525000042201210020FCF775FD002300930023A8
:1052600000220F210020FFF7A5FF00230093002359
:1052700000220E210420FFF79DFF07224FF4441166
:105280000020FCF7EBFD06224FF444110120FCF74F
:10529000E5FD0E4B03229A6002210220FFF7EAFE91
:1052A0007B68002B0BD079680020FDF703FC0123FD
:1052B00000930123002200210220FFF77BFF00BFA3
:1052C0000837BD4680BD00BF00F2040000C00C409E
:1052D00080B500AF064B074A9A60054B0122DA758C
:1052E000054B1B6802491846FEF75CFE00BF80BDF7
:1052F0005000002000127A004C00002080B500AF62
:1053000003210220FFF728FF00BF80BD80B500AF5A
:1053100003210220FFF7F2FE00BF80BD80B500AF81
:1053200003210320FFF7EAFE00BF80BD80B500AF78
:1053300003210320FFF710FF00BF80BD80B500AF41
:1053400000210220FFF7B0FE0346DBB2184680BD05
:1053500080B582B000AF0346FB71054B1B68F91D99
:1053600001221846FEF792FF00BF0837BD4680BDF8
:105370004C00002080B582B000AF7860054B1B6800
:10538000012279681846FEF757FF00BF0837BD466F
:1053900080BD00BF4C00002080B582B000AF034646
:1053A0003960FB71054B1B68FA7939681846FEF7BE
:1053B0006DFF00BF0837BD4680BD00BF4C00002018
:1053C00080B582B000AF03463960FB71054B1B68A6
:1053D000FA7939681846FEF72FFF00BF0837BD4637
:1053E00080BD00BF4C00002080B582B000AF786067
:1053F00001211248FFF7FAFEFFF76AFF00F05EF89E
:105400000CE00F4800F048FCFEF790FA42F21070F2
:10541000FEF742FBFEF720FB00F050F80948FDF7CD
:105420006FFA0346002BECD100230022002100205C
:10543000FFF75EFC00BF0837BD4680BDD9540000B1
:10544000FC6F0000C06C000080B588B000AF7860D1
:1054500007F10C03FB617B68002B01D10F4B19E0B6
:105460000F4B1B78002B14D00D4B00221A70FB69D8
:10547000002200210020FFF73BFCF969786800F06A
:10548000ADF9F969786800F04BF8F9697868FFF7C9
:10549000B3FD002318462037BD4680BD019000F0C3
:1054A0004004002080B500AF00210220FFF76CFC13
:1054B00000210120FFF768FC00BF80BD80B500AF70
:1054C000FFF77BFBFEF732FA42F21070FEF7E4FAC8
:1054D000FEF7C2FA00BF80BD80B483B000AF0346C0
:1054E000FB71044B01221A7000BF0C37BD465DF8FA
:1054F000047B70474004002080B584B002AF786020
:105500007B68187E08230193032300930023002265
:105510000021FFF7BEFB002318460837BD4680BDBB
:1055200080B586B000AF786039607B68002B01D110
:10553000184B2AE03B689B7803F01003002B1FD028
:1055400007F1080319460020FFF71EFC3B7A1A46B4
:105550007B68DB6919461046FFF745FC7B685B6991
:10556000002B04D07B685B69002178689847002194
:105570000220FFF709FC7868FFF7BEFF002304E074
:1055800000210220FFF700FC002318461837BD4613
:1055900080BD00BF019000F080B58AB002AFF86016
:1055A0000B467A607B8107F1140300221A605A606F
:1055B0001A8101233B757B89FB820023FB77FB6803
:1055C000002B01D1174B28E0FB681B79012B0AD176
:1055D000FB68DB887A899A4205D1FB681A7A7B8955
:1055E000DBB29A420CD00123FB777B89DBB23B769E
:1055F00000237B760023BB760023FB7600233B77DA
:10560000F97F7B680193BB8BADF8003007F1140381
:105610000CCBF86800F002F9002318462037BD468D
:1056200080BD00BF019000F080B588B002AF786007
:105630003960214A07F10C0307CA03C31A8000230B
:10564000FB757B68002B01D11C4B30E07B681B791C
:10565000002B1DD17B68DA88FB899A4218D17B68C0
:105660001A7A3B7C9A4213D17B685A7A7B7C9A42A5
:105670000ED17B689A7ABB7C9A4209D17B68DA7A30
:10568000FB7C9A4204D17B681A7B3B7D9A4201D015
:105690000123FB75F97D3B680193BB8AADF80030AF
:1056A00007F10C030CCB786800F0B8F8002318461B
:1056B0001837BD4680BD00BF20700000019000F08B
:1056C00080B588B002AFF860384680E80E0000234D
:1056D000FB75FB68002B01D11A4B2FE0FB681B798F
:1056E000012B1DD1FB68DA887B889A4218D1FB68B0
:1056F0001A7A3B799A4213D1FB685A7A7B799A429B
:105700000ED1FB689A7ABB799A4209D1FB68DA7AA2
:10571000FB799A4204D1FB681A7B3B7A9A4201D00A
:105720000123FB75F97D3B6A01933B89ADF800309D
:105730003B460CCBF86800F071F800231846183788
:10574000BD4680BD019000F080B586B002AFF86024
:10575000384680E80E00FB68002B01D1114B1CE09D
:105760003B78012B06D17B88BA691946F868FFF7A8
:1057700013FF11E03B78002B04D1B969F868FFF7FB
:1057800053FF09E03B78022B06D1BB6900933B46EF
:105790000ECBF868FFF794FF002318461037BD467C
:1057A00080BD00BF019000F080B584B002AF78608A
:1057B00039607B68002B01D1074B08E07B683A68B1
:1057C000009204330ECB7868FFF7BEFF0023184623
:1057D0000837BD4680BD00BF019000F080B582B0A3
:1057E00000AF786039607B68002B01D10A4B0FE075
:1057F0003B689B7803F02003002B08D07B681B6874
:10580000002B04D07B681B68002178689847002330
:1058100018460837BD4680BD019000F082B080B5C3
:1058200086B000AF786007F1200080E80C000B46DE
:10583000FB707B68002B01D1354B62E007F1080358
:105840001846FFF7E0FA3B7A072B01D1314B58E0BD
:10585000FB78002B47D097F820207B681A717B6873
:105860000022DA8097F824207B681A727B68197A04
:105870007B68DA888BB213449AB27B68DA8097F837
:1058800025207B685A727B68597A7B68DA888BB2EC
:1058900013449AB27B68DA8097F826207B689A7264
:1058A0007B68997A7B68DA888BB213449AB27B68FA
:1058B000DA8097F827207B68DA727B68D97A7B6870
:1058C000DA888BB213449AB27B68DA8097F8282082
:1058D0007B681A737B68197B7B68DA888BB2134408
:1058E0009AB27B68DA807B68DB88F96A1846FFF732
:1058F0006AFA7B689B7B002230211846FFF7A4F9E7
:10590000002318461837BD46BDE8804002B07047F6
:10591000019000F0019100F053B94AB9002908BF85
:1059200000281CBF4FF0FF314FF0FF3000F072B97C
:10593000ADF1080C6DE904CE00F006F8DDF804E0E6
:10594000DDE9022304B070472DE9F047089E0446C4
:105950008846002B4BD18A42154667D9B2FA82F2AB
:105960004AB1C2F1200701FA02F320FA07F7954085
:1059700047EA030894404FEA154E230CB8FBFEF7A4
:105980001FFA85FC0EFB178843EA084307FB0CF15E
:10599000994209D9EB1807F1FF3080F01B81994239
:1059A00040F21881023F2B445B1AA4B2B3FBFEF015
:1059B0000EFB103344EA034400FB0CFCA44509D958
:1059C0002C1900F1FF3380F00781A44540F20481D7
:1059D00002382C4440EA0740A4EB0C0400271EB117
:1059E000D4400023C6E900433946BDE8F0878B4226
:1059F00009D9002E00F0EB800027C6E900013846E7
:105A00003946BDE8F087B3FA83F7002F47D18B42C0
:105A100002D3824200F2FA80841A61EB0303012070
:105A20009846002EE0D0C6E90048DDE702B9FFDE67
:105A3000B2FA82F2002A40F08F80491B4FEA154EDD
:105A40001FFA85F80127B1FBFEFC230C0EFB1C118D
:105A500043EA014308FB0CF1994207D9EB180CF11A
:105A6000FF3002D2994200F2CD808446591AA3B287
:105A7000B1FBFEF00EFB101443EA044408FB00F8EF
:105A8000A04507D92C1900F1FF3302D2A04500F23E
:105A9000B6801846A4EB080440EA0C409FE7C7F123
:105AA000200CBB4022FA0CFE4EEA030E01FA07F46A
:105AB00020FA0CF521FA0CF34FEA1E482543B3FBFC
:105AC000F8F92C0C08FB19331FFA8EFA44EA034349
:105AD00009FB0AF49C4202FA07F200FA07F10BD91B
